:10000000008003201901000001010000010100002F
:1000100001010000010100000101000000000000DA
:10002000000000000000000000000000552E00004D
:100030000101000000000000712E0000010100001D
:1000400001010000010100000101000001010000A8
:100050000101000001010000010100000101000098
:1000600001010000010100003D0500000101000048
:100070000101000001010000010100000101000078
:1000800001010000C10400000101000001010000A5
:100090000101000001010000010100000101000058
:1000A0000101000001010000010100000101000048
:1000B000010100000101000001010000000000003A
:1000C000000000000101000001010000010100002A
:1000D0000101000001010000010100000101000018
:1000E000010100000101000001010000000000000A
:1000F00000000000010100000000000001010000FC
:10010000044B82B0D3F800220092D3F8043201935A
:1001100000BFFDE700E100E0184AD2F8883043F460
:10012000700310B4C2F88830BFF34F8FBFF36F8FE6
:10013000134A14498A420DD20139891A124B21F00F
:100140000301043119441C68146004338B4202F12A
:100150000402F8D10D4B0E4A93420BD2013AD21A47
:1001600022F0030204321A44002019460433934259
:100170000860FAD15DF8044B03F046BC00ED00E0E6
:100180000000002064000020BC6200006800002025
:1001900050440020064AD2F8883043F47003C2F875
:1001A0008830BFF34F8FBFF36F8F0020704700BFC1
:1001B00000ED00E008B5032002F090F9FBE700BF76
:1001C00070B54FF0A0450E4E4FF480320323C5F8B2
:1001D000082546F00106C5F840371924D5F804353E
:1001E000DA4302F4803203F48033C5F808254FF473
:1001F0008070C5F80C35B047013CEFD1EDE700BF8A
:100200003061000070B54FF0A0450D4E4FF48042B4
:100210000323C5F8082546F00106C5F8383732240F
:10022000D5F80435DA4302F4804203F48043C5F87C
:1002300008254020C5F80C35B047013CF0D1EEE769
:1002400030610000054B036010B403F168048023A3
:100250000C605DF8044B1360704700BF680000201D
:10026000084A00210123C2F81C05C2F81C11936042
:10027000D2F81C31002BFBD000210123C2F81C1145
:10028000D36070470020004010B5064C20684FF046
:10029000FF3100F0D1FE60684FF0FF3100F0CCFE7E
:1002A000F4E700BFD00200204FF0A040114B4FF404
:1002B00000440322C0F808450021C0F83C27102262
:1002C000C3F80415C3F840254FF48032C3F8042363
:1002D000094A4FF48065156082F80A130122D0F8AC
:1002E0000415090403D5DA601A60C0F80C45DA6019
:1002F000F5E700BF00A0004000E100E038B52DEDBB
:10030000088B9FED3F9B9FED40AA0AEE900A0BEEF3
:10031000101AF0EE008A03F0FDFB07EE900AF8EEEB
:10032000E77ABFEE008A67EE8A7AF0EE48BAE7EE27
:10033000A8BA03F0EFFB07EE900AF8EEE77A1BEE9F
:10034000900A67EE8A7AA7EEA88A03F005F8B0EE65
:10035000491AF0EE691A41EC100B04F0A9FC18EEF2
:10036000100A55EC104B02F0F7FFB0EE491AF0EE10
:10037000691A41EC100B04F09BFC204653EC102B47
:10038000294602F08BFE03F0EFFA07EE900AB7EE73
:10039000007AF4EEC77AF1EE10FABCDAF5EE407AA4
:1003A000F1EE10FAB7D002F0D7FF04460D4645EC47
:1003B000104B04F039FC002251EC100B4FF040437D
:1003C00003F022F822462B4603F048F941EC100BCB
:1003D00004F0E6FC51EC100B03F0C6FA07EE900AAD
:1003E000B8EECBBA67EEABBAF8EEEAAAEBEE2BAA00
:1003F000FDEEEA7ABDEC088B17EE900A38BD00BF1F
:1004000000000000000000400000003010B4044C68
:10041000C4E90321A06063615DF8044B704700BF2D
:10042000D0020020012802D0022805D07047054BD9
:1004300019699868FFF762BF024B5969D868FFF7DE
:100440005DBF00BFD002002070B54FF08043174E53
:10045000174C3169B0680125C3F8B455C3F8185575
:100460009D60FFF74BFF03467169F068C4F84035A3
:10047000FFF744FF0F4B1049C4F844054FF44032D6
:10048000C4F84423C4F80423C3F810150B4AA1F59B
:100490009E71C3F81415E021C3F80455A5602560CA
:1004A00082F811134FF40033136070BDD0020020A6
:1004B0000010014000F001404411014000E100E063
:1004C00030B585B01A4C00230393D4F84021012A9B
:1004D00020D0D4F84431012B01D005B030BD154DEA
:1004E00003A9134B01910022C3F8442101F0AEFE91
:1004F0000199686800F01EFC039B002BEDD00E4BA9
:100500004FF080525A6040BFBFF34F8FBFF36F8FE1
:1005100005B030BD074DC4F8403103A928680191EA
:1005200000F008FCD4F844310199012BE4D1D8E75C
:1005300000100140D002002000ED00E0094BD3F88C
:100540004021012A00D070474FF0A04110B44FF471
:1005500000400024C3F840415A605DF8044BC1F8E4
:100560000805704700A00040012318B100FB03F309
:100570000138FBD11846704730B5032283B0002103
:10058000012000F099F8114C0346032200210120BC
:10059000636000F091F82146FF2541F8180B002315
:1005A000CDE900514FF4A4720025094909481C34D3
:1005B00001F04AFBCDE90054074908482B464FF4A7
:1005C000A47201F041FB284603B030BDD0020020E8
:1005D000446100008902000048610000A902000097
:1005E00038B504460D4602F0EBFCD4E90F23216830
:1005F00003FB02F2D31A0A4462600022A2630B4496
:10060000FF2284F84420C4E9021384F84520C5B9C8
:1006100023691BB902F0DEFC012038BD04F1100093
:1006200002F05AF80028F5D00C4B4FF080525A6077
:1006300040BFBFF34F8FBFF36F8F02F0CBFC0120A1
:1006400038BD04F1100001F051F904F1240001F06B
:100650004DF902F0BFFC012038BD00BF00ED00E005
:1006600010B51C4633B3002908BF1A460123C4E95C
:100670000F0184F84630226002F0A2FCD4E90F2377
:10068000216803FB02F2D31A0A440B446260002083
:10069000FF22A063C4E9021384F8442004F110008F
:1006A00084F8452001F022F904F1240001F01EF93C
:1006B00002F090FC204610BD70B506460D4669B1AB
:1006C00000FB01F0483002F005FC044680B3002234
:1006D00000F1480380F84620036007E0482002F05C
:1006E000F9FB044620B384F846502460C4E90F6542
:1006F00002F066FCD4E90F23216803FB02F2D31A4F
:100700000A440B4462600020FF22A063C4E9021384
:1007100084F8442004F1100084F8452001F0E6F844
:1007200004F1240001F0E2F802F054FC204670BD10
:100730000024204670BD00BF70B514462AB30123C3
:10074000002682F846302260C2E90F060D4602F00C
:1007500037FCD4E90F232168A66303FB02F2D31A06
:100760000A440B446260FF2284F84420C4E9021367
:1007700084F8452004F1100001F0B8F804F12400D9
:1007800001F0B4F802F026FCA563204670BD00BF5E
:10079000F8B5064648200D4602F09CFB044618B307
:1007A000002780F846702060C0E90F6702F008FC5F
:1007B000D4E90F232168A76303FB02F2D31A0A448A
:1007C0000B446260FF2284F84420C4E9021384F8D9
:1007D000452004F1100001F089F804F1240001F033
:1007E00085F802F0F7FBA5632046F8BD2DE9F04738
:1007F000044684B01F460192884600F1240602F0A8
:10080000DFFBA26BE36BDFF830939A424FF0000AF4
:100810007AD3022F00F0E480019D002D00F00D81BD
:1008200002ADBAF1000F00F0D78002F0D3FB01F067
:10083000E1FC02F0C5FB94F84430FF2B04BF002319
:1008400084F8443094F84530FF2B04BF002384F82B
:10085000453002F0BFFB01A9284601F0B7FF002890
:1008600040F0F18002F0ACFBA26BE36B9A425FD0E8
:1008700002F0B0FB02F0A4FB94F8452055B2002D25
:1008800004DC11E06A1ED3B255B26BB1636A304624
:1008900053B101F021FF0028F4D001F0C9FF6A1E16
:1008A000D3B255B2002BF1D1FF2384F8453002F0CA
:1008B00091FB02F085FB94F8442055B2002D14DD25
:1008C00004F1100A03E06A1ED3B255B26BB123697A
:1008D000504653B101F000FF0028F4D001F0A8FF0A
:1008E0006A1ED3B255B2002BF1D1FF2384F84430F5
:1008F00002F070FB01F02EFD02F062FBA26BE36BD5
:100900009A424FF0010A84D2226CA56B002A40F073
:10091000E2802668002E00F0F4800135A563636A4A
:10092000002B79D102F056FB012004B0BDE8F0871E
:1009300004F1100A02F04EFB0199504601F062FEEC
:1009400002F03EFB94F845305DB2002D04DC11E06E
:100950006B1EDAB25DB26AB1636A304653B101F020
:10096000BBFE0028F4D001F063FF6B1EDAB25DB26B
:10097000002AF1D1FF2384F8453002F02BFB02F06E
:100980001FFB94F844305DB2002D04DC11E06B1EB7
:10099000DAB25DB26AB12369504653B101F09CFEF0
:1009A0000028F4D001F044FF6B1EDAB25DB2002AD9
:1009B000F1D1FF2384F8443002F00CFB01F0CAFCB3
:1009C000002899D14FF08053C9F8043040BFBFF3DD
:1009D0004F8FBFF36F8F8FE7284601F0EDFE24E7BE
:1009E000226CA56B002A94D04146E06803F07CF8A5
:1009F000226CE36851429B1A2268E360934204D25E
:100A000063680B44E360022F87D1002D86D1012358
:100A1000A363636A002B85D004F1240001F05CFE1F
:100A200000283FF47FAF444B4FF080525A6040BFE4
:100A3000BFF34F8FBFF36F8F74E702F0CBFA2846F6
:100A400004B0BDE8F08702F0BBFA94F845305DB21F
:100A5000002D14DD04F1240603E06B1EDAB25DB252
:100A60006AB1636A304653B101F036FE0028F4D013
:100A700001F0DEFE6B1EDAB25DB2002AF1D1FF2377
:100A800084F8453002F0A6FA02F09AFA94F844305D
:100A90005DB2002D14DD04F1100603E06B1EDAB226
:100AA0005DB26AB12369304653B101F015FE0028EA
:100AB000F4D001F0BDFE6B1EDAB25DB2002AF1D1B6
:100AC000FF2384F8443002F085FA01F043FC002053
:100AD00004B0BDE8F08707BB4146A06803F004F806
:100AE000A368216C62680B449342A360FFF415AFC6
:100AF0000135A563636A2268A260002B3FF412AF40
:100B00008AE76068013501F02DFFA563636A6660BE
:100B1000002B81D1002886D104E74146E06802F02D
:100B2000E3FF226CE36851429B1A2268E360934220
:100B3000BFF469AF64E700BF00ED00E038B54820BE
:100B400002F0C8F9044660B30025012380F846503E
:100B50002060C0E90F3502F033FAD4E90F23216891
:100B6000A16003FB02F2D31A0A440B446260FF2225
:100B7000E360A56304F1100084F8442084F8452064
:100B800000F0B4FE04F1240000F0B0FE02F022FAFE
:100B9000C4E90055E5602B462A4629462046FFF762
:100BA00025FE204638BD00BF38B54568044601F033
:100BB0007FFE854201D0002038BDE368013BE36041
:100BC0000BB1012038BD1A4619462046FFF70EFE2C
:100BD000012038BD38B50C4661B30025012381F8EA
:100BE00046302160C1E90F3502F0EAF9D4E90F235C
:100BF0002168A16003FB02F2D31A0A440B4462602D
:100C0000FF22E360A56304F1100084F8442084F817
:100C1000452000F06BFE04F1240000F067FE02F0B6
:100C2000D9F9C4E90055E5602B462A4629462046F5
:100C3000FFF7DCFD204638BD2DE9F043044683B0C4
:100C400016469946EFF31188802282F31188806B53
:100C5000E26B904223D3022B05D0002088F3118849
:100C600003B0BDE8F08394F84550226CA76B6DB2D9
:100C7000DAB1E06802F038FF226CE1682068891A76
:100C80008142E160C2F1000205D261680A44E2607B
:100C9000B9F1020F0CD1012F38BF012709E094F8F8
:100CA0004550226CA76B6DB282B92368002B2CD003
:100CB00001376B1CA7631AD001356DB284F845501B
:100CC000012088F3118803B0BDE8F08323BBA0683E
:100CD00002F00AFFA368226C13446268A360934287
:100CE00024BF2368A36001376B1CA763E4D1636A48
:100CF000002BE5D004F1240001F0EEFC0028DFD049
:100D0000002EDDD001203060A8E76068019301F07B
:100D100029FE019B6360CBE7E06802F0E5FE226CF0
:100D2000E1682068891A8142E160C2F10002AFD215
:100D3000ABE700BF10B582B0EFF31184802383F3DB
:100D40001188836BC26B9A420FD990F8452001330A
:100D5000FF2A836353B20DD001335BB280F8453074
:100D6000012084F3118802B010BD002084F31188A3
:100D700002B010BD436A002BF2D02430019101F083
:100D8000ABFC0028ECD001990029E9D001200860D3
:100D9000ECE700BF2DE9F043044685B00F46019211
:100DA00002F00EF9A56B002D40F01D81019B002B78
:100DB00000F0CE8002A801F0FFFCDFF8788204F199
:100DC000240602F007F901F015FA02F0F9F894F898
:100DD0004430FF2B04BF002384F8443094F845309E
:100DE000FF2B04BF002384F8453002F0F3F801A97B
:100DF00002A801F0EBFC002859D102F0E1F8A36B46
:100E0000002B40F0AB8002F0E5F80199304601F08C
:100E1000F9FB02F0D5F894F845305DB2002D04DC02
:100E200011E06B1EDAB25DB26AB1636A304653B14B
:100E300001F052FC0028F4D001F0FAFC6B1EDAB28B
:100E40005DB2002AF1D1FF2384F8453002F0C2F8E8
:100E500002F0B6F894F844305DB2002D14DD04F1D0
:100E6000100903E06B1EDAB25DB26AB1236948462D
:100E700053B101F031FC0028F4D001F0D9FC6B1E15
:100E8000DAB25DB2002AF1D1FF2384F8443002F0D7
:100E9000A1F801F05FFA002851D14FF08053C8F853
:100EA000043040BFBFF34F8FBFF36F8F47E002F0B6
:100EB00087F894F845305DB2002D04DC11E06B1E1C
:100EC000DAB25DB26AB1636A304653B101F004FC34
:100ED0000028F4D001F0ACFC6B1EDAB25DB2002A3F
:100EE000F1D1FF2384F8453002F074F802F068F87D
:100EF00094F844305DB2002D14DD04F1100903E0D4
:100F00006B1EDAB25DB26AB12369484653B101F093
:100F1000E3FB0028F4D001F08BFC6B1EDAB25DB26B
:100F2000002AF1D1FF2384F8443002F053F801F095
:100F300011FA02F045F8A36B53B102F04BF802F03E
:100F40003FF8A56B002D4ED1019B002B7FF439AFEC
:100F500002F040F8002005B0BDE8F08302F03AF856
:100F600002F02EF894F845305DB2002D04DC11E05B
:100F70006B1EDAB25DB26AB1636A304653B101F0FA
:100F8000ABFB0028F4D001F053FC6B1EDAB25DB26B
:100F9000002AF1D1FF2384F8453002F01BF802F05B
:100FA0000FF894F844305DB2002D14DD04F11009FF
:100FB00003E06B1EDAB25DB26AB12369484653B1F1
:100FC00001F08AFB0028F4D001F032FC6B1EDAB28B
:100FD0005DB2002AF1D1FF2384F8443001F0FAFF1A
:100FE00001F0B8F9ABE7226C52B1E16863681144D3
:100FF0009942E16024BF2168E160384602F074FD47
:10100000013DA56323692BB901F0E4FF012005B080
:10101000BDE8F08304F1100001F05EFB0028F3D07E
:10102000044B4FF080525A6040BFBFF34F8FBFF365
:101030006F8FE9E700ED00E02DE9F043044685B04D
:1010400000F12406019101F0BBFFA36BDFF8D88209
:101050000027B946002B40F0D380019D002D00F001
:10106000378102ADB9F1000F00F0DA8001F0B2FF74
:1010700001F0C0F801F0A4FF94F84430FF2B04BF46
:10108000002384F8443094F84530FF2B04BF00233C
:1010900084F8453001F09EFF01A9284601F096FB37
:1010A00000285DD101F08CFFA36B002B40F0C480C1
:1010B00001F090FF2368002B00F019810199304660
:1010C00001F0A0FA01F07CFF94F845305DB2002DEC
:1010D00004DC11E06B1EDAB25DB26AB1636A3046BD
:1010E00053B101F0F9FA0028F4D001F0A1FB6B1E16
:1010F000DAB25DB2002AF1D1FF2384F8453001F065
:1011000069FF01F05DFF94F844305DB2002D14DDFD
:1011100004F1100903E06B1EDAB25DB26AB1236913
:10112000484653B101F0D8FA0028F4D001F080FB12
:101130006B1EDAB25DB2002AF1D1FF2384F844308D
:1011400001F048FF01F006F9002851D14FF080531B
:10115000C8F8043040BFBFF34F8FBFF36F8F47E035
:1011600001F02EFF94F845305DB2002D04DC11E053
:101170006B1EDAB25DB26AB1636A304653B101F0F8
:10118000ABFA0028F4D001F053FB6B1EDAB25DB26B
:10119000002AF1D1FF2384F8453001F01BFF01F054
:1011A0000FFF94F844305DB2002D14DD04F11009F6
:1011B00003E06B1EDAB25DB26AB12369484653B1EF
:1011C00001F08AFA0028F4D001F032FB6B1EDAB28B
:1011D0005DB2002AF1D1FF2384F8443001F0FAFE19
:1011E00001F0B8F801F0ECFEA36BEBB101F0F2FEF8
:1011F00001F0E6FEA36B4FF00109002B3FF42DAF89
:101200002268013BA363002A00F08A802369002B37
:1012100076D101F0DFFE0127384605B0BDE8F08346
:10122000284601F0C9FA21E701F0D4FE002F48D189
:10123000384605B0BDE8F08301F0CCFE01F0C0FEF9
:1012400094F845305DB2002D04DC11E06B1EDAB27B
:101250005DB26AB1636A304653B101F03DFA0028CD
:10126000F4D001F0E5FA6B1EDAB25DB2002AF1D1DA
:10127000FF2384F8453001F0ADFE01F0A1FE94F8A3
:1012800044305DB2002D14DD04F1100903E06B1E43
:10129000DAB25DB26AB12369484653B101F01CFA73
:1012A0000028F4D001F0C4FA6B1EDAB25DB2002A55
:1012B000F1D1FF2384F8443001F08CFE01F04AF8AC
:1012C00096E701F07DFE616A49B9606801F07CFB38
:1012D00001F080FE0027384605B0BDE8F083236B9F
:1012E00060681968C1F1050101F06EFBF0E701F0DB
:1012F00067FE606801F0F2FA074601F06BFEDDE67A
:1013000004F1100001F0E8F9002882D0064B4FF0FC
:1013100080525A6040BFBFF34F8FBFF36F8F78E7A3
:1013200001F09AFB606071E700ED00E070B546687F
:1013300004460D4601F0BCFA864208D029462046F4
:10134000FFF77AFE10B1E3680133E36070BDE36834
:1013500001200344E36070BD2DE9F043044685B0ED
:101360000F46019201F02CFEA36B002B40F01D8173
:10137000019B002B00F0CE8002A801F01DFADFF8DF
:10138000788204F1240601F025FE00F033FF01F01D
:1013900017FE94F84430FF2B04BF002384F8443038
:1013A00094F84530FF2B04BF002384F8453001F04A
:1013B00011FE01A902A801F009FA002859D101F093
:1013C000FFFDA36B002B40F0AB8001F003FE019901
:1013D000304601F017F901F0F3FD94F845305DB2A5
:1013E000002D04DC11E06B1EDAB25DB26AB1636AF3
:1013F000304653B101F070F90028F4D001F018FA2A
:101400006B1EDAB25DB2002AF1D1FF2384F84530B9
:1014100001F0E0FD01F0D4FD94F844305DB2002D00
:1014200014DD04F1100903E06B1EDAB25DB26AB19B
:101430002369484653B101F04FF90028F4D001F078
:10144000F7F96B1EDAB25DB2002AF1D1FF2384F8FE
:10145000443001F0BFFD00F07DFF002851D14FF076
:101460008053C8F8043040BFBFF34F8FBFF36F8F76
:1014700047E001F0A5FD94F845305DB2002D04DC95
:1014800011E06B1EDAB25DB26AB1636A304653B1E5
:1014900001F022F90028F4D001F0CAF96B1EDAB28B
:1014A0005DB2002AF1D1FF2384F8453001F092FDAE
:1014B00001F086FD94F844305DB2002D14DD04F196
:1014C000100903E06B1EDAB25DB26AB123694846C7
:1014D00053B101F001F90028F4D001F0A9F96B1E15
:1014E000DAB25DB2002AF1D1FF2384F8443001F072
:1014F00071FD00F02FFF01F063FDA36B53B101F00C
:1015000069FD01F05DFDA36B002B4ED1019B002B0B
:101510007FF439AF01F05EFD002005B0BDE8F08337
:1015200001F058FD01F04CFD94F845305DB2002DFE
:1015300004DC11E06B1EDAB25DB26AB1636A304658
:1015400053B101F0C9F80028F4D001F071F96B1E15
:10155000DAB25DB2002AF1D1FF2384F8453001F000
:1015600039FD01F02DFD94F844305DB2002D14DDFD
:1015700004F1100903E06B1EDAB25DB26AB12369AF
:10158000484653B101F0A8F80028F4D001F050F912
:101590006B1EDAB25DB2002AF1D1FF2384F8443029
:1015A00001F018FD00F0D6FEABE7226CE5684AB109
:1015B0006368A9189942E16024BF2168E160384658
:1015C00002F092FA636AE5602BB901F003FD012095
:1015D00005B0BDE8F08304F1240001F07DF8002897
:1015E000F3D0054B4FF080525A6040BFBFF34F8F8E
:1015F000BFF36F8FE9E700BF00ED00E02DE9F04198
:101600000446EFF31188802383F31188856B25B995
:10161000284688F31188BDE8F08190F8447016469A
:10162000026C7FB262B9013D7B1CA56317D0013704
:101630007FB284F84470012088F31188BDE8F081FE
:101640000846E168636811449942E16024BF21685B
:10165000E16002F049FA013D7B1CA563E7D12369F3
:10166000002BE8D004F1100001F036F80028E2D099
:10167000002EE0D001203060CBE700BF70B50446FB
:10168000EFF31185802282F31188806B10B985F306
:10169000118870BD226CE66852B160680B46B118C3
:1016A0008142E16024BF2168E160184602F01CFA23
:1016B000E660012085F3118870BD00BF10B50446B7
:1016C00082B001F07DFCA06B019001F083FC0198D9
:1016D00002B010BD10B5044682B001F071FCA36BDE
:1016E000E06BC01A019001F075FC019802B010BDCA
:1016F000806B7047224B5A68904220D0DA68904243
:101700002AD05A69904229D0DA69904228D05A6A80
:10171000904227D0DA6A904226D05A6B904225D068
:10172000DA6B904224D05A6C904223D0DA6C90420B
:1017300008BF092204D090F846305BB17047002200
:101740009FED0D7B03EBC20383ED007B90F84630E9
:10175000002BF3D101F0E6BB0122F1E70222EFE713
:101760000322EDE70422EBE70522E9E70622E7E79B
:101770000722E5E70822E3E7000000000000000080
:10178000F0020020806BB0FA80F04009704700BF83
:10179000836BC06BC01AB0FA80F04009704700BF7D
:1017A000164B1A689AB19A6882B11A69B2B19A69ED
:1017B000B2B11A6AB2B19A6AB2B11A6BB2B19A6B8B
:1017C000B2B11A6CB2B19A6CB2B17047012203EB9C
:1017D000C20C43F83210CCF8040070470222F6E73E
:1017E0000322F4E70422F2E70522F0E70622EEE7FF
:1017F0000722ECE70822EAE70922E8E7F0020020E6
:101800001B4B5A6890421ED0DA6890421FD05A692A
:1018100090421ED0DA6990421DD05A6A90421CD084
:10182000DA6A90421BD05A6B90421AD0DA6B90421F
:1018300019D05A6C904218D0DA6C824208BF092243
:1018400002D000207047002253F832007047012276
:10185000FAE70222F8E70322F6E70422F4E705227A
:10186000F2E70622F0E70722EEE70822ECE700BFE6
:10187000F00200201C4B5A6890421DD0DA6890425A
:1018800022D05A69904221D0DA69904220D05A6A17
:1018900090421FD0DA6A90421ED05A6B90421DD0FF
:1018A000DA6B90421CD05A6C90421BD0DA6C8242A8
:1018B00008BF092201D07047002203EBC2030020B9
:1018C0000021C3E9000170470122F6E70222F4E794
:1018D0000322F2E70422F0E70522EEE70622ECE716
:1018E0000722EAE70822E8E7F002002000F10803F7
:1018F0004FF0FF310022C0E90131C0E9033302603B
:10190000704700BF00230361704700BF43689A68B7
:101910008A60026810B49C684B6001326160996013
:101920005DF8044B08610260704700BF30B40D6879
:101930006B1C10D000F108031C465B681A68AA42B1
:10194000FAD902684B60013299608C60616008616D
:1019500030BC0260704704696368F2E7036910B441
:10196000D0E901125C688A608442516008BF5A6005
:101970001A685DF8044B0021013A01611A60186889
:10198000704700BF2DE9F041334C054601F018FBCC
:101990002368013323606368002B35D0D4F8D83036
:1019A0004BB3EB6A04F10806D4F8DC200132C4F82A
:1019B000DC20D4F8E0209A4238BFC4F8E03003EBD2
:1019C000830306EB8300291DFFF7A0FF01F002FB54
:1019D000D4F8D8306BB16268EB6AD26A9A4208D206
:1019E0001E4B4FF080525A6040BFBFF34F8FBFF382
:1019F0006F8FBDE8F0816268EB6AD26A9A4298BF45
:101A0000656004F10806CFE765602368012BC8D143
:101A100004F10806374604F16C0838461437FFF71E
:101A200065FFB845F9D10E4F0E48FFF75FFF384606
:101A3000FFF75CFF07F11400FFF758FF07F12800DC
:101A4000FFF754FF07F13C00FFF750FFC4F8D080C8
:101A5000EB6AC4F8D470A7E74003002000ED00E073
:101A6000C0030020AC0300202DE9F0470A9C089E2B
:101A7000DDF824900D464FEA820A52460746A5211A
:101A8000206B984602F03EF82B7884F83430236BB4
:101A9000AAF1040A9A442B782AF0070A002B4DD0A9
:101AA0006B7884F835306B78002B47D0AB7884F8AE
:101AB0003630AB78002B41D0EB7884F83730EB78B8
:101AC000002B3BD02B7984F838302B79002B35D084
:101AD0006B7984F839306B79002B2FD0AB7984F88F
:101AE0003A30AB7953B3EB7984F83B30EB792BB3D5
:101AF0002B7A84F83C302B7A03B36B7A84F83D3030
:101B00006B7ADBB1AB7A84F83E30AB7AB3B1EB7A67
:101B100084F83F30EB7A8BB12B7B84F840302B7B01
:101B200063B16B7B84F841306B7B3BB1AB7B84F85A
:101B30004230AB7B13B1EB7B84F84330042E4FF083
:101B4000000528BF0426E6626664201D84F8435021
:101B5000A564FFF7D7FEC6F1050604F11800FFF7EC
:101B6000D1FE2566C4E91355C4E91555A661246163
:101B70006462E56584F8645042463946504601F097
:101B8000E5F92060B9F1000F01D0C9F80040BDE8C7
:101B9000F08700BF80B51B4C1B4F4FF08056D4F828
:101BA000E430EBB101F00CFAD4F8B430DD68281D54
:101BB000FFF7D4FE2368013B2360D4F8E430013BF7
:101BC000C4F8E43001F006FA95F8653093B1012BC2
:101BD000E5D1284601F0A6F9D4F8E430002BE1D194
:101BE000A368012BDBD97E6040BFBFF34F8FBFF3EB
:101BF0006F8FD4E7286B01F095F9284601F092F930
:101C0000CDE700BF4003002000ED00E030B587B015
:101C1000DDE90B45A5B184B12C630A9C0094022434
:101C2000029585F8654005AC0194FFF71DFF284635
:101C3000FFF7A8FE059807B030BD204607B030BDBD
:101C4000284607B030BD00BF2DE9F043074685B0F8
:101C5000900015468846994601F03CF9D8B10446F3
:101C6000682001F037F90646D0B10463002486F8F5
:101C700065400D9C01940C9C02964B462A464146B9
:101C800038460094FFF7F0FE3046FFF77BFE012058
:101C900005B0BDE8F0834FF0FF3005B0BDE8F0833C
:101CA000204601F03FF94FF0FF30F1E770B50446F0
:101CB0002E4E01F085F9002C47D0251D2846FFF750
:101CC0004DFEA36A1BB104F11800FFF747FED6F8DA
:101CD000DC3072680133A242C6F8DC302BD03368A6
:101CE00094F86520013B336092B1012A39D0D6F8CF
:101CF000D0301B68BBB94FF0FF33C6F8E83001F0B5
:101D000069F9D6F8D83013B17368A3421FD070BDFB
:101D1000206B01F007F9204601F004F9D6F8D03025
:101D20001B68002BE7D0D6F8D030DB68DB685B6837
:101D3000C6F8E830E3E70E482946FFF7E7FDD6F896
:101D4000E4300133C6F8E430D9E77468B5E7094BED
:101D50004FF080525A6040BFBFF34F8FBFF36F8F79
:101D600070BD204601F0DEF8C1E700BF400300204F
:101D7000E803002000ED00E070B5154D6B6883426C
:101D800019D0044601F01CF9666901F023F9D5F871
:101D9000D030B34211D0D5F8D430B3420DD005F1D4
:101DA000BC039E420BD0A835AE420ED0002E0CBF15
:101DB0000420012070BD002070BD022070BDA36A08
:101DC000002B14BF0220032070BD042070BD00BF93
:101DD0004003002010B5044682B001F0F1F834B1A0
:101DE000E06A019001F0F6F8019802B010BD014BD5
:101DF0005C68F5E740030020EFF31183802282F353
:101E0000118818B1C06A83F311887047024A50687C
:101E1000C06A83F31188704740030020F0B504299D
:101E200028BF042183B004460D4601F0C9F8002CF8
:101E300035D0626C95422DD0254F09D97B68A342DD
:101E400044D07B68DE6AAE428CBF0026012604E0E7
:101E50007E68361BB6FA86F67609E36A65649A42AE
:101E6000A26908BFE562002AA4BFC5F10505A56106
:101E7000184D626903EB830305EB83039A4211D08B
:101E800046B1154B4FF080525A6040BFBFF34F8FA1
:101E9000BFF36F8F03B0BDE8F04001F09BB80C4B6F
:101EA0005C68C6E7211D08460191FFF757FDE06A0F
:101EB000D7F8E0300199984288BFC7F8E00000EBFE
:101EC000800005EB8000FFF721FDD9E70026C4E77D
:101ED000400300204803002000ED00E070B50446F8
:101EE000514D01F06DF8002C00F08580261D304624
:101EF000FFF734FDA36A1BB104F11800FFF72EFDB4
:101F00004A483146FFF702FD94F86430012B04BFC4
:101F1000002384F8643001F05DF8D5F8D830002B48
:101F200059D16B68A34200D070BDD5F8D830002BD2
:101F300068D1D5F8BC102A6891426DD0D5F8EC3044
:101F4000002B6BD1C5F8F030D5F8E03003EB8301FE
:101F500005EB81019A00896851BB591E01EB810094
:101F600005EB80008A00806800285BD1991E01EB98
:101F7000810005EB80008A008068002852D1D91EBC
:101F800001EB810005EB80008A008068002849D1C0
:101F9000191F01EB810005EB80008A008068002892
:101FA00040D1053B03EB830105EB81019A00896871
:101FB0001A4405EB8204E16848681D49E06001EBC2
:101FC00082020832904204BF4068E060C2686A60E2
:101FD000C5F8E03070BD00F0F3FFD5F8D0301B68D5
:101FE0005BB1D5F8D030DB68DB685B68C5F8E830FA
:101FF00000F0F0FF95E76C6878E74FF0FF33C5F825
:10200000E830F5E70B4B4FF080525A6040BFBFF30A
:102010004F8FBFF36F8F70BD6B6070BD0123C5F82C
:10202000F03070BD0B46C3E740030020FC030020E6
:102030004803002000ED00E0A0B130B51F4D6B68F3
:10204000834283B004460BD000F0BAFF626905F109
:10205000BC039A4207D003B0BDE8304000F0BABFDD
:1020600003B030BD7047A36A05F194029342F2D0E9
:10207000002BF0D1211D08460191FFF76FFCD5F828
:10208000E020E36A0E480199934288BFC5F8E0302A
:1020900003EB830300EB8300FFF738FC6B68E26A15
:1020A000DB6A9A42D7D3074B4FF080525A6040BF49
:1020B000BFF34F8FBFF36F8FCDE700BF400300200A
:1020C0004803002000ED00E0F0B583B0EFF3118786
:1020D000802383F311881E4E426906F1BC039A42A5
:1020E00005D0002587F31188284603B0F0BD856A26
:1020F000044606F194008542F3D0002DF1D1D6F8C4
:10210000EC30FBB97368E56ADB6A211D9D42084625
:1021100034BF002501250191FFF720FCE36AD6F8C2
:10212000E0200C480199934288BFC6F8E03003EBE9
:10213000830300EB8300FFF7E9FB87F31188284650
:1021400003B0F0BD04F11801FFF7E0FBCAE700BFE0
:10215000400300204803002030B589B0002406AABF
:1021600005A904A8CDE90444FEF76CF8049D45B325
:10217000059B33B3022207A82B6385F8652023460D
:10218000069A13490094CDE901051248FFF76CFC4B
:102190002846FFF7F7FB079A0F4BC3F8F420A2B1CC
:1021A000802282F311884FF0FF310122C3F8E8103A
:1021B000C3F8D820C3F8F84009B0BDE8304000F0BB
:1021C000D7BE054B0022C3F8F42009B030BD00BFD4
:1021D0004C610000951B000040030020802383F326
:1021E0001188034B0022C3F8D82000F0E7BE00BFDF
:1021F00040030020034AD2F8EC300133C2F8EC303F
:10220000704700BF40030020014BD3F8F80070472F
:1022100040030020014BD3F8F80070474003002032
:10222000014B1868704700BF4003002008B13430EC
:102230007047024B58683430704700BF400300209D
:10224000014BD3F8F4007047400300202DE9F84318
:102250003E4CD4F8EC30002B57D1D4F8F83003F1D1
:102260000108C4F8F880B8F1000F15D1D4F8D030C7
:10227000D4F8D420C4F8D020C4F8D430D4F8FC303A
:102280000133C4F8FC30D4F8D0301B68002B4CD19B
:102290004FF0FF33C4F8E830D4F8E830434542D873
:1022A000D4F8D0301E68002E4BD0DFF8A490002662
:1022B0001FE0FFF753FBAB6A05F118000BB1FFF706
:1022C0004DFBEB6AD4F8E02003EB830093423946E0
:1022D00009EB800088BFC4F8E030FFF717FB6268A5
:1022E000D4F8D030E96AD26A1B68914228BF01262F
:1022F0003BB3D4F8D030DB68DD686B682F1D9845A0
:102300003846D6D2C4F8E83005E0D4F800310133BD
:102310000026C4F80031D4F8F030002B0CBF304652
:102320000120BDE8F8830026F5E7D4F8D030DB685B
:10233000DB685B68C4F8E830D4F8E8304345F2D88D
:10234000AEE74FF0FF33C4F8E830E4E74003002085
:10235000480300202DE9F0413B4C82B000F030FEF4
:10236000D4F8EC30013BC4F8EC30D4F8EC30002B5E
:1023700045D12368002B42D0D4F894307BB304F1CC
:1023800008074FF00108D4F8A030DD682E1D05F1D4
:102390001800FFF7E3FA3046FFF7E0FAEB6AD4F8EB
:1023A000E02003EB83009342314607EB800088BFB7
:1023B000C4F8E030FFF7AAFA6368EA6ADB6A9A4277
:1023C00025D3C4F8F080D4F89430002BDBD1D4F8B6
:1023D000D0301B687BBB4FF0FF33C4F8E830D4F833
:1023E00000514DB10126FFF731FF08B1C4F8F0608C
:1023F000013DF8D1C4F80051D4F8F03083B9002081
:10240000019000F0E7FD019802B0BDE8F081D4F83A
:102410009430002BB7D1D4F8D0301B685BB9DAE721
:102420000A4B4FF080525A6040BFBFF34F8FBFF34B
:102430006F8F0120E4E7D4F8D030DB68DB685B689D
:10244000C4F8E830CBE700BF4003002000ED00E017
:10245000F8B5204DD5F8EC300133C5F8EC30036801
:10246000D5F8F8605C182CBF01210021B34204604C
:102470000DD969B9FFF76EFF40B9174B4FF0805285
:102480005A6040BFBFF34F8FBFF36F8FF8BD09B9DC
:10249000A642EFD2D5F8F8706868BE1B0430FFF78B
:1024A0005DFA34446B68A7425C6006D9D5F8D40065
:1024B00069680431FFF73AFADCE7D5F8D0006968BB
:1024C0000431FFF733FAD5F8E8309C4238BFC5F83D
:1024D000E840CFE74003002000ED00E070B548B9C8
:1024E000194B4FF080525A6040BFBFF34F8FBFF37C
:1024F0006F8F70BD154DD5F8EC300133C5F8EC3059
:10250000D5F8F860044668680430FFF727FA6B686E
:10251000A4195C6010D2D5F8D00069680431FFF7C7
:1025200005FAD5F8E8309C4238BFC5F8E840FFF717
:1025300011FF0028D4D070BDD5F8D40069680431EB
:10254000FFF7F4F9F3E700BF00ED00E040030020DF
:102550002A4BD3F8EC201AB10122C3F8F0207047BF
:1025600010B4C3F8F020D3F8E02002EB820003EBB4
:1025700080009100806838BB501E00EB800403EBA4
:1025800084048100A468002C36D1901E00EB8004E6
:1025900003EB84048100A46874BBD01E00EB8004AC
:1025A00003EB84048100A46834BB101F00EB80049B
:1025B00003EB84048100A468F4B9053A02EB8200BD
:1025C00003EB800091008068114403EB810CDCF880
:1025D0000C0044680A48CCF80C4000EB810108313B
:1025E0008C4204BF6468CCF80C40E16859605DF827
:1025F000044BC3F8E02070470246E5E740030020A3
:102600004803002070B5184D6B680C4603F11801A3
:10261000FFF78CF9D5F8F86068680430FFF79EF989
:10262000631C18D06B68A4195C6007D3D5F8D4007C
:102630006968BDE870400431FFF778B9D5F8D0007B
:1026400069680431FFF772F9D5F8E8309C4238BF69
:10265000C5F8E84070BD696805F1BC000431BDE80B
:102660007040FFF753B900BF4003002070B5194C0C
:10267000636841F000419961616818311546FFF7C0
:1026800045F9D4F8F86060680430FFF767F96B1C0F
:1026900018D06368AD195D6007D3D4F8D4006168C1
:1026A000BDE870400431FFF741B9D4F8D00061684B
:1026B0000431FFF73BF9D4F8E8309D4238BFC4F845
:1026C000E85070BD616804F1BC000431BDE87040A1
:1026D000FFF71CB94003002070B5C368174CDD68D4
:1026E00005F1180682B03046FFF738F9D4F8EC301F
:1026F000F3B9291D08460191FFF730F9EB6AD4F8C8
:10270000E0200F480199934288BFC4F8E03003EB02
:10271000830300EB8300FFF7F9F86368EA6ADB6A7A
:102720009A428ABF01200020C4F8F00002B070BDB8
:10273000314604F19400FFF7E9F8EEE7400300208A
:102740004803002070B5C568104C41F0004101609D
:102750002E1DFFF703F93046FFF700F9EB6AD4F8B6
:10276000E0200B48934288BFC4F8E03003EB8303BA
:1027700000EB83003146FFF7C9F86368EA6ADB6A59
:102780009A4284BF0123C4F8F03070BD400300209A
:102790004803002010B5044600F012FC054BD3F8A6
:1027A000FC20D3F8F830C4E90023BDE8104000F065
:1027B00011BC00BF40030020034BD3F8FC20D3F82A
:1027C000F830C0E90023704740030020F0B50D4603
:1027D00083B0044600F0F4FB2B68144A591CD2F86D
:1027E000F8001CD0D4E90071D2F8FC60B74208D0E0
:1027F000814206D80120019000F0ECFB019803B063
:10280000F0BD461AB3420CD91B1A0B44D2F8FC1087
:10281000D2F8F8202B600020C4E90012EBE700207A
:10282000E9E700232B600120E5E700BF400300201B
:10283000024B0122C3F8F020704700BF4003002084
:10284000042903DC18B100EB8100C2647047014B1E
:102850005868F8E74003002004290ADC18B100EBAF
:102860008100C06C7047044B586800EB8100C06C5D
:1028700070470020704700BF4003002068B1036B21
:102880001A78A52A0FD1C3F10101C81813F8012F36
:10289000A52AFAD0C0F38F007047044B5868036B29
:1028A0001A78A52AEFD00020704700BF400300200F
:1028B000014B5868704700BF40030020064BD3F817
:1028C000D82032B1D3F8EC30002B0CBF022000200E
:1028D00070470120704700BF4003002070B50446D8
:1028E00082B0C8B11D4DC36A6A68D26A934215D2DC
:1028F0008269002A04DB6A68D26AC2F10502826139
:10290000174E626903EB830306EB83039A420ED0F2
:102910006B68DB6AE362012002B070BD6B68406CDB
:10292000DB6A98422CBF0020012002B070BD211D3F
:1029300008460191FFF712F86B680199D86AD5F83B
:10294000E030E062984201D9C5F8E00000EB800079
:1029500006EB8000FEF7DAFF0120DDE740030020F0
:102960004803002068B110B5836CC16A426C013B1A
:10297000914282B00446836400D023B1002002B0AB
:1029800010BD00207047011D08460191FEF7E6FFCB
:10299000636C0B4AE362C3F10500A061D2F8E0006A
:1029A00001998342074888BFC2F8E03003EB8303F4
:1029B00000EB8300FEF7AAFF012002B010BD00BFAC
:1029C000400300204803002070B170B5426CC36A18
:1029D000914238BF11468B4282B0044602D0826CCD
:1029E000012A02D002B070BD70478269134DC162E6
:1029F000002A03EB8303426905F10806A8BFC1F171
:102A0000050106EB8303A8BF81619A42EAD1011D4B
:102A100008460191FEF7A2FFE06AD5F8E03001997F
:102A2000984288BFC5F8E00000EB800006EB80000C
:102A300002B0BDE87040FEF769BF00BF4003002050
:102A4000044A516853685268DB6A8869C3F1050318
:102A50009361704740030020044B5A681AB15968CB
:102A60008A6C01328A645868704700BF40030020B6
:102A7000F8B5294C06460D4600F0A2FA63681B6EB5
:102A800023B96368012283F86420ADB900F0A2FA8B
:102A900000F096FA63681D6E1DB163684EB10022A6
:102AA0001A666368002283F8642000F093FA2846CF
:102AB000F8BD6A1E1A66F4E7D4F8F870606804304E
:102AC000FEF74CFF6B1C13D06368ED195D6016D3E5
:102AD000D4F8D40061680431FEF728FF0F4B4FF0A3
:102AE00080525A6040BFBFF34F8FBFF36F8FCDE767
:102AF000616804F1BC000431FEF708FFEEE7D4F88A
:102B0000D00061680431FEF711FFD4F8E8309D422F
:102B100038BFC4F8E850E1E74003002000ED00E0D2
:102B20002DE9F041334C82B01E46074688461546D3
:102B300000F046FA636893F86430022B09D06368AA
:102B4000186E20EA07071F666368012283F8642075
:102B5000C6B900F03FFA00F033FA15B163681B6E96
:102B60002B60636893F86430022B27D000206368E1
:102B70000190002283F8642000F02CFA019802B042
:102B8000BDE8F081D4F8F87060680430FEF7E6FE26
:102B9000731C1AD06368F6195E601DD3D4F8D40094
:102BA00061680431FEF7C2FE134B4FF080525A6049
:102BB00040BFBFF34F8FBFF36F8FCAE76368196ED3
:102BC00021EA080101201966D1E7616804F1BC001F
:102BD0000431FEF79BFEE7E7D4F8D00061680431CA
:102BE000FEF7A4FED4F8E8309E4238BFC4F8E8608F
:102BF000DAE700BF4003002000ED00E0F0B51E461C
:102C000083B004460F46154600F0DAF90EB1236E84
:102C1000336094F8643002216A1EDBB284F86410D9
:102C2000032A06D8DFE802F0380E0402022B37D060
:102C30002766012B0CD00120019000F0CBF9019800
:102C400003B0F0BD226E012B02F101022266F2D127
:102C5000211D144D01910846FEF780FED5F8E020B5
:102C6000E36A11480199934288BFC5F8E03003EB4D
:102C7000830300EB8300FEF749FE6B68E26ADB6AC0
:102C80009A42D8D9094B4FF080525A6040BFBFF3E7
:102C90004F8FBFF36F8FCEE7216E0F432766C8E7D4
:102CA0000020C9E7400300204803002000ED00E0B9
:102CB00070B5044682B0EFF31185802080F311884F
:102CC0000BB1206E186094F864300220013ADBB238
:102CD00084F86400032A06D8DFE802F0290C040215
:102CE000022B3DD02166012B0AD0012085F31188EB
:102CF00002B070BD226E012B02F101022266F4D1F6
:102D00001A4ED6F8EC30B3B104F1180106F1940074
:102D1000FEF7FCFD7368E26ADB6A9A42E5D9069B1E
:102D20000120FBB1186085F3118802B070BD226EDE
:102D300011432166D7E7211D08460191FEF70EFEDB
:102D4000E06AD6F8E03001999842094B88BFC6F88E
:102D5000E00000EB800003EB8000FEF7D7FDD9E731
:102D60000020C3E7C6F8F000C0E700BF4003002022
:102D700048030020F0B583B0EFF31185802383F37F
:102D80001188022390F8642080F86430036E012AD1
:102D900003F10103036603D085F3118803B0F0BD8E
:102DA000174FD7F8EC3004460E468BB100F11801EE
:102DB00007F19400FEF7AAFD7B68E26ADB6A9A429B
:102DC000EAD90123CEB1336085F3118803B0F0BD99
:102DD000011D08460191FEF7C1FDD7F8E030E06A19
:102DE00001999842074B88BFC7F8E00000EB8000CC
:102DF00003EB8000FEF78AFDDEE7C7F8F030CBE793
:102E0000400300204803002010B582B088B104467A
:102E100000F0D6F894F86430022B05BF002301209F
:102E2000002084F86430019000F0D4F8019802B0DA
:102E300010BD014B5C68EBE74003002023480068AD
:102E400080F3088862B661B6BFF34F8FBFF36F8F10
:102E500000DF00BF1E4B19680868B0E8F04F80F330
:102E60000988BFF36F8F4FF0000080F3118870471F
:102E7000EFF30980BFF36F8F154B1A681EF0100F28
:102E800008BF20ED108A20E9F04F10604DF8043D96
:102E90004FF0800080F31188BFF34F8FBFF36F8F27
:102EA000FFF756FB4FF0000080F3118808BC19684B
:102EB0000868B0E8F04F1EF0100F08BFB0EC108AA1
:102EC00080F30988BFF36F8F704700BF00000000D8
:102ED0004403002038B5430704461CBF20F0070414
:102EE0000834FFF787F90D4A136893B1556843F624
:102EF000F7712C448C4207D8A54205D21D4454607A
:102F0000FFF728FA284638BD0025FFF723FA2846A0
:102F100038BD034B23F007031360E7E744040020A8
:102F200054040020704700BF014B00225A607047D4
:102F300044040020024B5868C0F57F503830704779
:102F400044040020802383F31188FEE710B44FF07F
:102F50008073064C40F8043C6FF0020340E90341E3
:102F600040E909325DF8044B44387047452F0000B2
:102F70000F4C08B5E02384F82230FDF765FA0D4BBD
:102F800000221A60D4F888300B4A43F47003C4F866
:102F90008830536B43F040435363236943F010037D
:102FA0002361FFF74BFF802383F31188FEE700BF07
:102FB00000ED00E04C44002000EF00E0704700BF4F
:102FC000802383F31188024A13680133136070472A
:102FD0004C440020034A1368013B13600BB983F390
:102FE000118870474C4400200000000000000000E1
:102FF00001F0FF01102A2BDB10F0070F08D010F8AA
:10300000013B013A8B422DD010F0070F42B3F6D1AD
:10301000F0B441EA012141EA014122F007047FF0C6
:1030200000070023F0E80256083C85EA010586EA1D
:10303000010685FA47F5A3FA87F586FA47F6A5FA59
:1030400087F68EB9EED1F0BC01F0FF0102F0070265
:1030500032B110F8013B013A83EA010313B1F8D110
:103060000020704701387047002D06BF35460338F1
:10307000073815F0010F07D1013015F4807F02BF2A
:10308000013015F4C03F0130F0BC0138704700BF7B
:1030900081F0004102E000BF83F0004330B54FEA09
:1030A00041044FEA430594EA050F08BF90EA020F76
:1030B0001FBF54EA000C55EA020C7FEA645C7FEA09
:1030C000655C00F0E2804FEA5454D4EB5555B8BF2C
:1030D0006D420CDD2C4480EA020281EA030382EA9D
:1030E000000083EA010180EA020281EA0303362D2F
:1030F00088BF30BD11F0004F4FEA01314FF4801C02
:103100004CEA113102D0404261EB410113F0004F13
:103110004FEA03334CEA133302D0524263EB4303CA
:1031200094EA050F00F0A780A4F10104D5F1200E68
:103130000DDB02FA0EFC22FA05F2801841F10001C3
:1031400003FA0EF2801843FA05F359410EE0A5F197
:1031500020050EF1200E012A03FA0EFC28BF4CF0C8
:10316000020C43FA05F3C01851EBE37101F000457E
:1031700007D54FF0000EDCF1000C7EEB00006EEB8B
:103180000101B1F5801F1BD3B1F5001F0CD3490815
:103190005FEA30004FEA3C0C04F101044FEA44526C
:1031A00012F5800F80F09A80BCF1004F08BF5FEAF3
:1031B000500C50F1000041EB045141EA050130BDD3
:1031C0005FEA4C0C404141EB0101013C28BFB1F5E5
:1031D000801FE9D291F0000F04BF01460020B1FA30
:1031E00081F308BF2033A3F10B03B3F120020CDA03
:1031F0000C3208DD02F1140CC2F10C0201FA0CF0E1
:1032000021FA02F10CE002F11402D8BFC2F1200C45
:1032100001FA02F120FA0CFCDCBF41EA0C019040FB
:10322000E41AA2BF01EB0451294330BD6FEA040444
:103230001F3C1CDA0C340EDC04F11404C4F120022F
:1032400020FA04F001FA02F340EA030021FA04F341
:1032500045EA030130BDC4F10C04C4F1200220FA98
:1032600002F001FA04F340EA0300294630BD21FAD6
:1032700004F0294630BD94F0000F83F4801306BF9C
:1032800081F480110134013D4EE77FEA645C18BF90
:103290007FEA655C29D094EA050F08BF90EA020F27
:1032A00005D054EA000C04BF1946104630BD91EA1F
:1032B000030F1EBF0021002030BD5FEA545C05D122
:1032C0004000494128BF41F0004130BD14F5800461
:1032D0003CBF01F5801130BD01F0004545F0FE41D5
:1032E00041F470014FF0000030BD7FEA645C1ABF0A
:1032F000194610467FEA655C1CBF0B46024650EA41
:10330000013406BF52EA033591EA030F41F400216C
:1033100030BD00BF90F0000F04BF0021704730B5F2
:103320004FF4806404F132044FF000054FF00001C7
:1033300050E700BF90F0000F04BF0021704730B588
:103340004FF4806404F1320410F0004548BF40425D
:103350004FF000013EE700BF42004FEAE2014FEAB2
:1033600031014FEA02701FBF12F07F4393F07F4F8D
:1033700081F06051704732F07F4208BF704793F090
:103380007F4F04BF41F40021704730B54FF46074A3
:1033900001F0004521F000411CE700BF50EA0102A6
:1033A00008BF704730B54FF000050AE050EA01024F
:1033B00008BF704730B511F0004502D5404261EBBF
:1033C00041014FF4806404F132045FEA915C3FF400
:1033D000D8AE4FF003025FEADC0C18BF03325FEA9D
:1033E000DC0C18BF033202EBDC02C2F1200300FA4E
:1033F00003FC20FA02F001FA03FE40EA0E0021FA73
:1034000002F11444BDE600BF70B54FF0FF0C4CF460
:10341000E06C1CEA11541DBF1CEA135594EA0C0F12
:1034200095EA0C0F00F0DEF82C4481EA030621EA4D
:103430004C5123EA4C5350EA013518BF52EA033588
:1034400041F4801143F4801338D0A0FB02CE4FF03A
:103450000005E1FB02E506F00042E0FB03E54FF06A
:103460000006E1FB03569CF0000F18BF4EF0010E62
:10347000A4F1FF04B6F5007F64F5407404D25FEA5E
:103480004E0E6D4146EB060642EAC62141EA555111
:103490004FEAC52040EA5E504FEACE2EB4F1FD0C53
:1034A00088BFBCF5E06F1ED8BEF1004F08BF5FEAD1
:1034B000500E50F1000041EB045170BD06F0004683
:1034C00046EA010140EA020081EA0301B4EB5C0430
:1034D000C2BFD4EB0C0541EA045170BD41F4801128
:1034E0004FF0000E013C00F3AB8014F1360FDEBF4D
:1034F000002001F0004170BDC4F10004203C35DA29
:103500000C341BDC04F11404C4F1200500FA05F3AB
:1035100020FA04F001FA05F240EA020001F000424C
:1035200021F0004110EBD37021FA04F642EB0601C2
:103530005EEA430E08BF20EAD37070BDC4F10C04EC
:10354000C4F1200500FA04F320FA05F001FA04F2B0
:1035500040EA020001F0004110EBD37041F100019C
:103560005EEA430E08BF20EAD37070BDC4F12005A7
:1035700000FA05F24EEA020E20FA04F301FA05F20F
:1035800043EA020321FA04F001F0004121FA04F2B7
:1035900020EA020000EBD3705EEA430E08BF20EA87
:1035A000D37070BD94F0000F0FD101F000464000C1
:1035B00041EB010111F4801F08BF013CF7D041EA43
:1035C000060195F0000F18BF704703F00046520047
:1035D00043EB030313F4801F08BF013DF7D043EA18
:1035E0000603704794EA0C0F0CEA135518BF95EACE
:1035F0000C0F0CD050EA410618BF52EA4306D1D155
:1036000081EA030101F000414FF0000070BD50EA73
:10361000410606BF1046194652EA430619D094EAFD
:103620000C0F02D150EA013613D195EA0C0F05D1E7
:1036300052EA03361CBF104619460AD181EA03013B
:1036400001F0004141F0FE4141F470014FF00000F3
:1036500070BD41F0FE4141F4780170BD70B54FF08E
:10366000FF0C4CF4E06C1CEA11541DBF1CEA13550E
:1036700094EA0C0F95EA0C0F00F0A7F8A4EB0504F0
:1036800081EA030E52EA03354FEA013100F08880E7
:103690004FEA03334FF0805545EA131343EA1263B0
:1036A0004FEA022245EA111545EA10654FEA002665
:1036B0000EF000419D4208BF964244F1FD0404F51E
:1036C000407402D25B084FEA3202B61A65EB03057A
:1036D0005B084FEA32024FF480104FF4002CB6EB37
:1036E000020E75EB030E22BFB61A754640EA0C00B7
:1036F0005B084FEA3202B6EB020E75EB030E22BFF7
:10370000B61A754640EA5C005B084FEA3202B6EB37
:10371000020E75EB030E22BFB61A754640EA9C00F6
:103720005B084FEA3202B6EB020E75EB030E22BFC6
:10373000B61A754640EADC0055EA060E18D04FEA84
:10374000051545EA16754FEA06164FEAC30343EA24
:1037500052734FEAC2025FEA1C1CC0D111F4801FF1
:103760000BD141EA00014FF000004FF0004CB6E7EA
:1037700011F4801F04BF01430020B4F1FD0C88BF89
:10378000BCF5E06F3FF6AFAEB5EB030C04BFB6EB94
:10379000020C5FEA500C50F1000041EB045170BD87
:1037A0000EF0004E4EEA113114EB5C04C2BFD4EBB4
:1037B0000C0541EA045170BD41F480114FF0000E38
:1037C000013C90E645EA060E8DE60CEA135594EAB4
:1037D0000C0F08BF95EA0C0F3FF43BAF94EA0C0FB7
:1037E0000AD150EA01347FF434AF95EA0C0F7FF42C
:1037F00025AF104619462CE795EA0C0F06D152EA80
:1038000003353FF4FDAE1046194622E750EA410663
:1038100018BF52EA43067FF4C5AE50EA41047FF474
:103820000DAF52EA43057FF4EBAE12E74FF0FF3CD9
:1038300006E000BF4FF0010C02E000BF4FF0010CAA
:103840004DF804CD4FEA410C7FEA6C5C4FEA430C23
:1038500018BF7FEA6C5C1BD001B050EA410C0CBF72
:1038600052EA430C91EA030F02BF90EA020F0020D4
:10387000704710F1000F91EA030F58BF994208BF3B
:1038800090422CBFD8176FEAE37040F001007047F8
:103890004FEA410C7FEA6C5C02D150EA013C07D14F
:1038A0004FEA430C7FEA6C5CD6D152EA033CD3D09A
:1038B0005DF8040B704700BF8446104662468C4694
:1038C0001946634600E000BF01B5FFF7B7FF0028C7
:1038D00048BF10F1000F01BD4DF808EDFFF7F4FFF0
:1038E0000CBF012000205DF808FB00BF4DF808ED7B
:1038F000FFF7EAFF34BF012000205DF808FB00BF9E
:103900004DF808EDFFF7E0FF94BF012000205DF8BF
:1039100008FB00BF4DF808EDFFF7CEFF94BF012074
:1039200000205DF808FB00BF4DF808EDFFF7C4FF6D
:1039300034BF012000205DF808FB00BF4FEA410CB6
:103940007FEA6C5C02D150EA013C0AD14FEA430C99
:103950007FEA6C5C02D152EA033C02D14FF00000D6
:1039600070474FF0010070474FEA4102B2F1E04367
:1039700024BFB3F5001CDCF1FE5C0DD901F0004C56
:103980004FEAC0024CEA5070B2F1004F40EB8300A6
:1039900008BF20F00100704711F0804F21D113F1D2
:1039A0003872BCBF01F00040704741F480114FEA0B
:1039B0005252C2F11802C2F1200C10FA0CF320FA94
:1039C00002F018BF40F001004FEAC1234FEAD323B1
:1039D00003FA0CFC40EA0C0023FA02F34FEA43031B
:1039E000CCE77FEA625307D150EA01331EBF4FF0A4
:1039F000FE4040F44000704701F0004040F0FE40BF
:103A000040F40000704700BF00B52F4A0023042097
:103A10000621C2F86C35C2F80005C2F80C15D2F8C0
:103A2000141587B04FF0A04641F000414FF0805090
:103A3000C2F814150324C2F82405022503AA234959
:103A4000C6F86C472248CDE900524FF4A472FEF745
:103A5000FBF804AA1F490192002300954FF4A472B9
:103A60001D481E4DFEF7F0F805A8CDE900401C49A1
:103A70001C4800234FF4A472FEF7E6F864234FF6C7
:103A8000FF721E2140F6CC40FCF7C0FCFCF774FD31
:103A9000FEF762FB4FF40053C6F8083545F0010508
:103AA000C6F83447D6F80435DA4302F4005203F47A
:103AB0000053C6F808256424C6F80C354FF47A4044
:103AC000A847013CFAD1EDE7002000403861000032
:103AD000050200003C610000C101000030610000EF
:103AE00040610000B50100000A44914200F1FF333B
:103AF00000D1704710B511F8014B03F8014F914206
:103B0000F9D110BD02440346934200D1704703F837
:103B1000011BF9E7164B10B51C68A36BB3B918204D
:103B200000F066F8A06328B90246124B12484E21F5
:103B300000F02EF8114A124BC0E90023114B8360AC
:103B40000B23838101220023C0E90423A46B0E4AC6
:103B5000206963690D49424301FB0322A0FB010177
:103B6000431C42EB0100C4E9043020F0004010BDCA
:103B70000000002051610000686100000E33CDABF1
:103B800034126DE6ECDE05002DF451582D7F954C76
:103B90001FB514461A46094B1B680546D8684CB138
:103BA000074B0091CDE9013406492B4600F00EF891
:103BB00000F0C4FC044B1C46F3E700BF00000020EB
:103BC000E6610000F3610000216200000EB403B55D
:103BD000014603AB054853F8042B0068019300F03D
:103BE00019F902B05DF804EB03B070470000002043
:103BF000024B0146186800F06FB800BF00000020BB
:103C000037B5002944D051F8043C0190002BA1F1B4
:103C10000404B8BFE41800F0B9FE1E4A0198136806
:103C200033B96360146003B0BDE8304000F0B4BE47
:103C3000A34208D9256861198B4201BF19685B68E6
:103C400049192160EDE71A465B680BB1A342FAD926
:103C500011685518A5420BD1246821445418A34279
:103C60001160E0D11C685B68536021441160DAE7A1
:103C700002D90C230360D6E7256861198B4204BF83
:103C800019685B68636004BF491921605460CAE722
:103C900003B030BD5044002070B50E4E0C46316864
:103CA000054611B900F07AFB30602146284600F045
:103CB00075FB431C0AD0C41C24F00304A04207D0A7
:103CC000211A284600F06AFB013001D14FF0FF3481
:103CD000204670BD544400202DE9F041CD1C25F054
:103CE000030508350C2D38BF0C25002D074601DBD8
:103CF000A94205D90C233B6000263046BDE8F0817F
:103D00002E4E00F043FE33681C4634BB294638462D
:103D1000FFF7C2FF431C04464DD134682646002EEF
:103D200040D123683146384604EB030800F036FBE7
:103D300080453AD1216803356D1A25F00305083511
:103D40000C2D38BF0C2529463846FFF7A5FF01305A
:103D50002BD023682B4423600EE02268521B1ED414
:103D60000B2A16D96119A342256018BF59606368F0
:103D700008BF316062514B60384604F10B0600F019
:103D80000BFE26F00706231DF21AB6D09B1BA3508C
:103D9000B3E76268A3420CBF32605A60ECE7234687
:103DA0006468B2E734467668B9E70C233B6038466E
:103DB00000F0F2FDA1E72560DEE700BF50440020DF
:103DC0009368013B002B10B4936008DA9469A34216
:103DD00001DB0A2903D15DF8044B00F0EFBA136848
:103DE000581C1060197008465DF8044B7047F8B510
:103DF00006460F461446D518AC4201D1002007E014
:103E000014F8011B3A463046FFF7DAFF431CF3D1A2
:103E1000F8BD00002DE9F04F0D469DB014469846C0
:103E2000064618B183690BB900F0AAFC894B9D4284
:103E30001BD175686B6ED90705D4AB899A0502D47E
:103E4000A86D00F03BFDAB891B0701D52B69EBB9D1
:103E50002946304600F004FBC0B16B6EDC070ED57E
:103E60004FF0FF301DB0BDE8F08F7B4B9D4201D17C
:103E7000B568DFE7794B9D4208BFF568DAE7AB89A3
:103E80009805EDD4A86D00F01AFDE9E70023099329
:103E900020238DF82930CDF80C803023DFF8C08145
:103EA0008DF82A304FF0010923469A4613F8012B6A
:103EB0000AB1252AF9D1BAEB040B0BD05B46224696
:103EC00029463046FFF793FF013000F0AA80099A97
:103ED0005A4409929AF80030002B00F0A280002387
:103EE0004FF0FF32CDE905230AF1010A049307934D
:103EF0008DF853301A935446052214F8011B584884
:103F0000FFF776F8049AD8B9D10644BF20238DF87C
:103F10005330130744BF2B238DF853309AF80030E9
:103F20002A2B15D0079A544600204FF00A0C214640
:103F300011F8013B303B092B4ED9B0B1079214E088
:103F4000A0EB080309FA03F313430493A246D2E754
:103F5000039B191D1B680391002BBBBF5B4242F002
:103F6000020207930793B8BF049223782E2B0CD13B
:103F700063782A2B35D1039B1A1D1B680392002BF3
:103F8000B8BF4FF0FF3302340593DFF8E4A0217887
:103F900003225046FFF72CF840B14023A0EB0A0063
:103FA00003FA00F0049B03430134049314F8011B4B
:103FB0002C488DF828100622FFF71AF800283FD069
:103FC000294B1BBB039B073323F0070308330393E1
:103FD000099B3B44099367E70CFB02320C46012026
:103FE000A5E700230134059319464FF00A0C20463B
:103FF00010F8012B303A092A03D9002BC5D00591BE
:10400000C3E70CFB012104460123F0E703AB009357
:104010002A46164B04A93046AFF300800746781CA9
:10402000D6D16B6ED90705D4AB899A0502D4A86D99
:1040300000F045FCAB895B063FF512AF099811E72C
:1040400003AB00932A46094B04A9304600F080F8E0
:10405000E4E700BF7C6200009C6200005C6200003C
:10406000286200003262000000000000EF3D000006
:104070002E6200002DE9F047164699468A680B69C2
:10408000DDF820809342B8BF1346336091F8432097
:1040900007460C460AB1013333602368990642BFD4
:1040A000336802333360256815F0060506D104F144
:1040B000190AE36832689B1AAB4226DC94F8432065
:1040C000131E226818BF012392062BD404F1430269
:1040D00049463846C04701301ED02368E56832683B
:1040E00003F00603042B08BFAD1AA36822690CBFB6
:1040F00025EAE57500259342C4BF9B1AED180026FA
:104100001A34B5421AD1002008E00123524649462C
:104110003846C047013003D14FF0FF30BDE8F0878B
:104120000135C6E7E1185A1C302081F843002244CB
:1041300094F8451082F843100233C7E70123224662
:1041400049463846C0470130E6D00136D9E700007D
:104150002DE9FF470F7E0C9D782F914680460C4637
:104160009A4601F1430207D8622F0AD8002F00F0C7
:10417000D880582F00F0A38004F1420584F84270E3
:104180003AE0A7F16303152BF6D801A151F823F00B
:10419000E9410000FD410000794100007941000043
:1041A0007941000079410000FD41000079410000A3
:1041B0007941000079410000794100000943000085
:1041C0002D420000EB4200007941000079410000DF
:1041D0002B430000794100002D420000794100008E
:1041E00079410000F34200002B681A1D1B682A6009
:1041F00004F1420584F842300123A3E020682968D5
:10420000060601F104030AD50E682B60002E03DABE
:104210002D23764284F843305E480A2319E00E6865
:104220002B6010F0400F18BF36B2EFE72B68206804
:10423000191D2960010601D51E6802E04606FBD55E
:104240001E8854486F2F0CBF08230A23002184F8CE
:1042500043106568A560002DA2BF216821F004010C
:1042600021600EB9002D4DD01546B6FBF3F103FBCE
:104270001167C75D05F8017D3746BB420E46F4D98C
:10428000082B0BD12368DE0708D5236961689942A2
:10429000DEBF302305F8013C05F1FF35521B2261DA
:1042A000CDF800A04B4603AA21464046FFF7E2FEA8
:1042B00001304CD14FF0FF3004B0BDE8F0873548F5
:1042C00081F845702968236851F8046B29601D0640
:1042D00014D5DF0744BF43F0200323601EB92368D1
:1042E00023F0200323601023B0E7236843F020036A
:1042F00023607823284884F84530E3E7590648BF0F
:10430000B6B2E6E71546BBE72B6826686169181D5B
:10431000286035061B6801D5196002E07006FBD5E0
:104320001980002323611546BAE72B681A1D2A60FD
:104330001D68626800212846FEF75AFE08B1401B3E
:10434000606063682361002384F84330A8E7236931
:104350002A4649464046D0470130ABD023689B07E8
:1043600013D4E068039B9842B8BF1846A4E7012322
:10437000324649464046D04701309BD00135E3687C
:1043800003995B1AAB42F2DCEBE7002504F1190656
:10439000F5E700BF396200004A62000038B5064DFB
:1043A0000023044608462B6000F024FC431C02D185
:1043B0002B6803B1236038BD5C440020F8B50E467D
:1043C0001446054618B183690BB900F0D9F9214BA1
:1043D0009C422BD16C68A369A360A3891A072FD5CF
:1043E00023696BB323692068C01A6369F6B28342FC
:1043F000374604DC2146284600F02EF930BBA3687E
:10440000013BA36023685A1C22601E70636901305F
:10441000834204D0A389DB0706D50A2E04D12146A6
:10442000284600F019F988B93846F8BD0A4B9C4275
:1044300001D1AC68CFE7094B9C4208BFEC68CAE7E2
:104440002146284600F00CF80028CBD04FF0FF376B
:10445000EAE700BF7C6200009C6200005C62000032
:10446000324B70B51D6806460C4625B1AB6913B9D1
:10447000284600F085F92E4B9C420FD16C68A38929
:10448000B4F90C2019072CD4DD0611D409233360AC
:1044900042F04003A3814FF0FF303EE0254B9C42A9
:1044A00001D1AC68EBE7244B9C4208BFEC68E6E71F
:1044B000580712D5616B41B104F14403994202D00F
:1044C0003046FFF79DFB00236363A38923F0240399
:1044D000A3810023636023692360A38943F0080359
:1044E000A38123694BB9A38903F42073B3F5007F3B
:1044F00003D02146304600F009FAA089B4F90C2017
:1045000010F001030AD00023A36063695B42A3613A
:10451000236943B910F08000BAD170BD810758BF3C
:104520006369A360F4E70020F7E700BF0000002004
:104530007C6200009C6200005C62000008B50620FE
:1045400000F058FA012000F06BFB00008A892DE989
:10455000F041054610070C4658D44B68002B05DC8B
:104560000B6C002B02DC0020BDE8F081E66A002E17
:10457000F9D0002312F480522F682B6032D0606D86
:10458000A3895A0705D56368C01A636B0BB1236C06
:10459000C01A00230246E66A216A2846B047431C37
:1045A000A38906D129681D292CD82A4ACA40D607D2
:1045B00028D500226260D9042269226004D5421CF9
:1045C00001D12B6803B96065616B2F600029CAD0E7
:1045D00004F14403994202D02846FFF711FB002062
:1045E0006063C1E7216A01232846B047411CC7D157
:1045F0002B68002BC4D01D2B01D0162B01D12F60AE
:10460000B1E7A38943F04003A381ADE70F69002F11
:10461000A9D093070E6808BF4B690F6018BF00232D
:10462000A6EB07088B60B8F1000F9CDD216AA66A33
:1046300043463A462846B047002806DCA38943F0A3
:104640004003A3814FF0FF308EE70744A8EB00083A
:10465000E9E700BF0100402038B50B6905460C466C
:1046600013B90025284638BD18B183690BB900F08D
:1046700087F8144B9C421BD16C68B4F90C30002BAA
:10468000EFD0626ED00704D4990502D4A06D00F07B
:1046900015F928462146FFF759FF636EDA070546EC
:1046A000E0D4A3899B05DDD4A06D00F008F9D9E71B
:1046B000054B9C4201D1AC68DFE7044B9C4208BF2C
:1046C000EC68DAE77C6200009C6200005C6200003B
:1046D000002310B50446C0E90033C0E90433836009
:1046E00081814366C2818361194608225C30FFF7ED
:1046F00009FA054B6362054BA362054BE362054B68
:104700002462236310BD00BF2D4A00004F4A000001
:10471000874A0000AB4A0000014900F0AFB800BF73
:104720005946000070B568224D1E55430E4605F1EE
:104730007401FFF7D1FA044640B10021C0E9001628
:104740000C30A06005F16802FFF7DCF9204670BD6F
:10475000014800F0B3B800BF59440020014800F000
:10476000AEB800BF59440020014800F0A7B800BF10
:104770005A440020014800F0A2B800BF5A4400206B
:1047800010B50446FFF7F0FFA3691BB1BDE8104068
:10479000FFF7F0BFC4E912332365134B134A1B68BC
:1047A000A262A34204BF0123A361204600F020F8C7
:1047B0006060204600F01CF8A060204600F018F869
:1047C0000022E06004216068FFF782FFA0680122F8
:1047D0000921FFF77DFFE06802221221FFF778FF31
:1047E0000123A361D2E700BF246200001947000043
:1047F000F8B50746FFF7ACFF1E4B1E68B36913B947
:104800003046FFF7BDFF4836D6E90134013B03D5FA
:1048100033680BB33668F7E7B4F90C50D5B9164BCB
:10482000E36004F15800656600F047F8FFF796FF73
:10483000C4E90155C4E904552560A561082229464B
:1048400004F15C00FFF75EF9C4E90D55C4E91255A7
:104850002046F8BD6834D9E704213846FFF762FFE7
:10486000044630600028D5D1FFF778FF0C233B6069
:10487000EEE700BF246200000100FFFF2DE9F843CE
:104880000646884600F148040027D4E90195B9F1AD
:10489000010905D52468002CF7D13846BDE8F88316
:1048A000AB89012B07D9B5F90E30013303D0294666
:1048B0003046C04707436835E9E77047704770479F
:1048C00070B50E46B1F90E10002996B014461D467B
:1048D00008DAB6F90C3000222A601A0610D44FF418
:1048E00080630EE06A4600F007F90028F1DB019AC8
:1048F00002F47042A2F500535A425A412A60EEE790
:1049000040230020236016B070BD00008B8973B572
:104910009D0706460C4607D504F147032360236133
:104920000123636102B070BD01AB6A46FFF7C8FFA7
:10493000009905463046FFF7CFF948B9B4F90C3075
:104940009A05EFD423F0030343F00203A381E3E7C6
:104950000D4BB362A389206043F08003A381009BC9
:104960006361019B20615BB1B4F90E10304600F029
:10497000D5F828B1A38923F0030343F00103A381F1
:10498000A0890543A581CDE7194700000148FFF73D
:1049900095BF00BF584400200148FFF790BF00BFFB
:1049A000584400201F2938B504460D4604D9162363
:1049B00003604FF0FF3038BD426C12B152F8213025
:1049C0004BB9204600F030F82A4601462046BDE8A3
:1049D000384000F017B8012B0AD0591C03D1162318
:1049E00003600120E7E7002442F825402846984765
:1049F0000020E0E7024B01461868FFF7D3BF00BF75
:104A00000000002038B5074D002304460846114633
:104A10002B6000F0D7F8431C02D12B6803B1236050
:104A200038BD00BF5C44002000F0BCB810B50C4697
:104A3000B1F90E1000F094F80028ABBF636DA389A4
:104A40001B1823F48053ACBF6365A38110BD2DE90F
:104A5000F0411F468B89DB0505460C46164605D5F9
:104A6000B1F90E100223002200F068F8A389B4F90E
:104A70000E1023F48053A38132463B462846BDE8FE
:104A8000F04100F017B810B50C46B1F90E1000F067
:104A900055F8431CA38915BF606523F4805343F484
:104AA0008053A38118BFA38110BDB1F90E1000F08F
:104AB00013B8000038B5074D0446084611460022D9
:104AC0002A601A4600F0A4F8431C02D12B6803B1F7
:104AD000236038BD5C44002038B5064D00230446F1
:104AE00008462B6000F04EF8431C02D12B6803B13E
:104AF000236038BD5C44002038B5074D00230446D0
:104B0000084611462B6000F045F8431C02D12B6883
:104B100003B1236038BD00BF5C44002038B5064DAA
:104B20000023044608462B6000F044F8431C02D1E1
:104B30002B6803B1236038BD5C44002038B5074DB5
:104B400004460846114600222A601A4600F042F840
:104B5000431C02D12B6803B1236038BD5C440020A4
:104B600038B5074D04460846114600222A601A4609
:104B700000F038F8431C02D12B6803B1236038BD24
:104B80005C440020024B58221A604FF0FF307047FF
:104B90005C440020024B58221A604FF0FF307047EF
:104BA0005C440020024B58221A604FF0FF307047DF
:104BB0005C440020024B58221A600020704700BF5E
:104BC0005C440020024B58221A604FF0FF307047BF
:104BD0005C440020024B58221A604FF0FF307047AF
:104BE0005C440020024B58221A604FF0FF3070479F
:104BF0005C440020044A05491368002B08BF0B469B
:104C00001844106018467047604400206444002037
:104C1000024B58221A604FF0FF3070475C4400206E
:104C2000FEE700BF0000000038B52DED028B55EC0B
:104C3000104B00F0E9F822462B4620462946B0EEFC
:104C4000408AF0EE608AFEF779FE98B900220023D0
:104C500020462946FEF768FE60B900220023204660
:104C60002946FEF739FE60B101F058FA9FED0C8B32
:104C700022230360B0EE480AF0EE680ABDEC028B16
:104C800038BD01F04BFABDEC028B034621221A60BD
:104C90000548BDE8384001F0A7B900BFAFF3008078
:104CA000000000000000F0FF506100000000000064
:104CB000F8B52DED028B55EC114B57EC106B00F055
:104CC000BFFA22462B4620462946B0EE408AF0EE37
:104CD000608AFEF733FE78B9002200233046394659
:104CE000FEF7FAFDF0B10022002320462946FEF728
:104CF000F3FD40B19FED288BB0EE480AF0EE680A54
:104D0000BDEC028BF8BD45EC104B01F05FF90028BB
:104D1000F2D02046294600220023FEF7E7FD0028B6
:104D2000EAD02EE0B0EE480AF0EE680A01F04EF943
:104D3000A0B151EC180B00220023FEF7CDFD002896
:104D4000DAD047EC106B01F041F90028D4D045ECE3
:104D5000104B01F03BF90028CED012E047EC106B6D
:104D600001F034F90028E4D045EC104B01F02EF9A5
:104D70000028DED053EC182B51EC180BFEF7DEFDAB
:104D800020B901F0CBF922230360B5E701F0C6F9A1
:104D900021230360B0E700BF000000000000F03FE7
:104DA00038B52DED028B55EC104B01F003F822467F
:104DB0002B4620462946B0EE408AF0EE608AFEF788
:104DC000BDFD30B90022002320462946FEF78EFDA6
:104DD00030B9B0EE480AF0EE680ABDEC028B38BD7F
:104DE00001F09CF9002200232121016010461946A0
:104DF000FEF734FC41EC180BB0EE480AF0EE680AFE
:104E0000BDEC028B38BD00BF2DE9F04F51EC100B0B
:104E10002DED028BB1F5801F85B00F4658DA21F0D9
:104E20000043034310EE102A00F0FC800029C0F27A
:104E30003C81E14B0022FEF7E7FAE04B0F469F4230
:104E40006FF0350249DC3E15C7F3130707F515234C
:104E5000A6F2FF3603F66473164403F4801306EBE0
:104E6000135683F07F5383F4401343EA0701002273
:104E7000D34BFEF711F9BB1CC3F31303022B82467D
:104E80008B4635DC00220023FEF726FD002800F0CB
:104E9000D680002E00F060813046FEF74BFAB0A3BA
:104EA000D3E9002306460F46FEF7AEFAAEA3D3E9D8
:104EB000002304460D4630463946FEF7A5FA024661
:104EC0000B4620462946FEF7E9F841EC100B0AE0B4
:104ED000BA4B9F424FF00002B5DD02460B46FEF78B
:104EE000DDF841EC100B05B0BDEC028BBDE8F08F96
:104EF000A7F5C223A3F27A43019300224FF0804327
:104F0000FEF7CCF802460B4650465946FEF7A6FB84
:104F100041EC180B3046FEF70DFA53EC182BCDE997
:104F2000020151EC180BFEF76FFA02460B46804661
:104F30008946FEF769FA8EA3D3E9002304460D469D
:104F4000FEF762FA8CA3D3E90023FEF7A7F8224606
:104F50002B46FEF759FA8AA3D3E90023FEF79EF801
:104F600022462B46FEF750FA87A3D3E90023FEF72B
:104F700095F842464B46FEF747FA85A3D3E900234E
:104F80008046894620462946FEF73EFA82A3D3E9A9
:104F90000023FEF783F822462B46FEF735FA80A35E
:104FA000D3E90023FEF77AF822462B46FEF72CFAC7
:104FB0000B46024649464046FEF770F8C7F5D7272C
:104FC000019B51371F43002F804689465FDD7D4B93
:104FD000002250465946FEF717FA52465B46FEF746
:104FE00013FA04460D46002E69D122462B46404650
:104FF0004946FEF753F853EC182BFEF705FA024624
:105000000B4620462946FEF747F802460B46504617
:105010005946FEF741F841EC100B05B0BDEC028B90
:10502000BDE8F08F0022002367490020FEF716FB41
:1050300041EC100B05B0BDEC028BBDE8F08F5AA31C
:10504000D3E9002350465946FEF7DEF902460B46E7
:1050500000205C49FEF720F8524604460D465B46A8
:1050600050465946FEF7D0F902460B4620462946DF
:10507000FEF7CAF904460D46002E59D102460B46EA
:1050800050465946FEF708F841EC100B2BE7002E6E
:1050900040F09C8002460B4650465946FDF7FCFF07
:1050A00053EC182BFEF7B0F9AFE70B46FDF7F4FF12
:1050B00000220023FEF7D2FA41EC100B13E728A3DD
:1050C000D3E90023DDE90201FEF79EF922462B46D3
:1050D00006460F4640464946FDF7E0FF53EC182BC5
:1050E000FEF792F920A3D3E9002380468946DDE943
:1050F0000201FEF789F902460B4640464946FDF794
:10510000CDFF02460B4620462946FDF7C5FF524615
:105110005B46FDF7C1FF02460B4630463946FDF7B8
:10512000BBFF41EC100B05B0BDEC028BBDE8F08F6E
:105130003046FEF7FFF80AA3D3E9002380468946EC
:10514000FEF762F908A3D3E9002306460F4640465E
:105150004946FEF759F9D4E79FED150BC3E600BFAA
:105160000000E0FE422EE63F763C7935EF39EA3D1D
:1051700044523EDF12F1C23FDE03CB966446C73F86
:10518000599322942449D23F935555555555E53F9F
:105190009FC678D0099AC33FAF788E1DC571CC3FAA
:1051A00004FA97999999D93F555555555555D53F75
:1051B000000000000000000000005043FFFFEF7FF0
:1051C0000000F03F0000E03F000050C318A3D3E907
:1051D0000023DDE90201FEF717F942464B4604467B
:1051E0000D4650465946FDF757FF53EC182BFEF776
:1051F0000BF911A3D3E9002306460F46DDE90201AE
:10520000FEF702F902460B4630463946FDF744FFE9
:1052100052465B46FDF740FF02460B4620462946B4
:10522000FDF73AFF41EC100B5DE600BFAFF30080E5
:105230000000E0FE422EE63F763C7935EF39EA3D4C
:105240002DE9F04F55EC114B2DED0C8B25F0004A5C
:105250005AEA040157EC106B87B015D1B3197E4898
:1052600087F400225241994270EB020324D2224675
:105270002B4630463946FDF711FF41EC100B07B0C5
:10528000BDEC0C8BBDE8F08F744927F000498945CF
:1052900010EE102AB84616DD08F1404808F58018CF
:1052A00058EA0208E3D123196B4985F400225241E0
:1052B000984571EB0203DAD39FED650B07B0BDECA7
:1052C0000C8BBDE8F08F11EE103AAB4642D063492B
:1052D0008A45E1DC00F09480B8F1000F73DB002117
:1052E00000917BB95D4B9A4500F08E805C4B9A45EE
:1052F00000F0A280BBF1804F00F0C284594B9B4567
:1053000000F0D78347EC106B029200F055FE029A32
:1053100062B3009A4FEAD873013B0493134300F041
:105320009280514B9A4540F3A58003F104739A454E
:105330004E4B40F33F84994540F3B484BBF1000FDA
:1053400040F3B484002007B0BDEC0C8BBDE8F04FF7
:1053500000F028BE002E8AD1B9E747EC106B00920E
:1053600000F02AFE009A002A6DD10092B9F1000FD8
:1053700004D03B4B28F040429A42CAD1BBF1000F07
:1053800007DA53EC102B36490020FEF767F941ECA1
:10539000100BB8F1000FBFF672AF009B09F1404946
:1053A00009F5801959EA030340F0908453EC102B5F
:1053B00010461946FDF770FE02460B46FEF74EF901
:1053C00041EC100B5BE72A498A452FDCA1F15471AF
:1053D0008A450FDD4FEA2A51A1F2FF31142940F32B
:1053E0006784C1F1340123FA01F000FA01F1994216
:1053F00000F0A58400210091002B3FF477AF81E7F6
:10540000002B3FF469AF47E709F1404303F58013F0
:1054100013433FF451AF154B994540F38483BBF1DF
:10542000000FC0F2618445EC104B28E70221009187
:10543000002B3FF457AF65E7BBF1000FC0F21684B5
:1054400047EC106B1BE732463B46B1E7AFF30080F9
:10545000000000000000F03F0000F0FF0000F07FBF
:105460000000F03F0000E03F0000E041FFFFEF3FA1
:10547000FFFF3F43E44B08EA0303002253B951EC1A
:10548000100BE24BFDF7C0FF41EC100B10EE909AB1
:105490006FF034024FEA2953A3F2FF339A18DC4B22
:1054A0000592C9F3130949F07F56994546F4401611
:1054B00007DDD84B994540F31B8401320592A6F5D0
:1054C00080169FEDB96B9FEDBA7B53EC162BB0EEB7
:1054D00047CAF0EE67CA0027B0EE47DAF0EE67DAA7
:1054E0005BEC10ABB3465046594643EC1A2BFDF724
:1054F000D3FD53EC1A2B8046894650465946FDF79A
:10550000CDFD02460B460020C349FEF7A7F841EC4B
:105510001B0B404653EC1B2B4946FDF775FF41EC36
:10552000180B0A460146CDE90212002102917610BD
:105530004BEC19AB46F00056DDE902AB06F5002353
:105540000020D91906460F4602460B4650465946DA
:10555000FDF75AFF02460B4640464946FDF79CFDC3
:1055600053EC1A2B8046894630463946FDF794FDA8
:1055700002460B4651EC190BFDF78EFD52465B4679
:10558000FDF742FF02460B4640464946FDF784FDC3
:1055900053EC1B2BFDF738FF53EC182B41EC1B0B86
:1055A00051EC180BFDF730FF83A3D3E90023064627
:1055B0000F46FDF729FF82A3D3E90023FDF76EFD17
:1055C00032463B46FDF720FF7FA3D3E90023FDF7DA
:1055D00065FD32463B46FDF717FF7DA3D3E9002367
:1055E000FDF75CFD32463B46FDF70EFF7AA3D3E99B
:1055F0000023FDF753FD32463B46FDF705FF78A338
:10560000D3E90023FDF74AFD3246804689463B46F2
:1056100030463946FDF7F8FE02460B4640464946FD
:10562000FDF7F2FE524606460F465B4651EC180B5C
:10563000FDF734FD53EC1B2BFDF7E6FE32463B46EF
:10564000FDF72CFD524641EC1A0B5B46504659467D
:10565000FDF7DAFE714B002280468946FDF71EFDFC
:1056600053EC1A2BFDF71AFD50460F465946DDE95B
:1056700002AB3B465246FDF7C7FE684B41EC190BA7
:10568000002250463946FDF707FD42464B46FDF7DE
:1056900003FD02460B4651EC1A0BFDF7FDFC53ECE3
:1056A000182BFDF7B1FE52463B4606460F4651EC1D
:1056B0001B0BFDF7A9FE02460B4630463946FDF7A7
:1056C000EDFC8046894642464B4651EC190BFDF7EE
:1056D000E5FC45A3D3E9002350460F46FDF794FEB1
:1056E00053EC192B41EC190B50463946FDF7D4FC0D
:1056F00002460B4640464946FDF7CEFC3CA3D3E9A3
:105700000023FDF781FE02460B46164650463946F9
:105710001F4639A3D3E90023FDF776FE02460B4668
:1057200030463946FDF7BAFC53EC1D2BFDF7B6FCAD
:10573000804605988946FDF7FDFD424682468B4628
:105740004B4651EC190BFDF7A9FC53EC1C2BFDF754
:10575000A5FC52465B46FDF7A1FC52465B46002085
:1057600006460F46FDF798FC53EC1C2BFDF794FC06
:1057700053EC192BFDF790FC02460B464046494678
:10578000FDF78AFC009B049A013B134382468B463B
:1057900040F0C2819FED1A7BB0EE478AF0EE678A37
:1057A0003EE000BFAFF30080000000000000F03FCB
:1057B0000000000000000000EF4E454A287ECA3F6E
:1057C00065DBC9934A86CD3F01411DA96074D13F75
:1057D0004D268F515555D53FFFAB6FDBB66DDB3F87
:1057E000033333333333E33F000000E009C7EE3FB8
:1057F000FD033ADC09C7EE3FF5015B14E02F3EBE26
:10580000000000000000F0BF0000F07F00004043F7
:105810008E98030079B60B000000F03F00000840AE
:105820000023CDE900450093DDE90089204642468A
:105830004B462946FDF730FC32463B46FDF7E4FD7A
:1058400022462B4604460D4650465946FDF7DCFDE0
:1058500002460B4620462946FDF720FC42460446F8
:105860000D464B4630463946FDF7CEFD26462F46BF
:1058700004460D462B46304639462246FDF70EFCBF
:10588000C74B9942804689468A4640F31F8101F101
:105890003F4303F5E003034340F03E82AAA3D3E96C
:1058A000002330463946FDF7F9FB02460B464046D9
:1058B00049469046994622462B46FDF7EDFB0246A7
:1058C0000B4640464946FEF72FF8002840F0248258
:1058D000CAF30A534FF48012A3F2FE3342FA03F3E1
:1058E0005344B049C3F30A52A2F2FF3241FA02FC18
:1058F000C3F3130141F48011C2F1140241FA02F220
:10590000002023EA0C01BAF1000F00920B46024678
:1059100002DA00994942009120462946FDF7BCFB76
:10592000009B1B05029302460B4604460D4630467B
:105930003946FDF7B3FB89464FF0000884A3D3E94D
:10594000002340464946FDF75FFD22462B4682462E
:105950008B4640464946FDF79FFB02460B463046C4
:105960003946FDF799FB7CA3D3E90023FDF74CFDF5
:105970007BA3D3E9002304460D4640464946FDF784
:1059800043FD02460B4620462946FDF787FB0646A7
:105990000F4632463B4650465946FDF77FFB52467E
:1059A0005B4604460D46FDF777FB02460B46304644
:1059B0003946FDF771FB2246804689462B46204634
:1059C0002946FDF721FD68A3D3E9002306460F46CB
:1059D000FDF71AFD66A3D3E90023FDF75DFB324610
:1059E0003B46FDF711FD64A3D3E90023FDF756FB09
:1059F00032463B46FDF708FD61A3D3E90023FDF7DE
:105A00004BFB32463B46FDF7FFFC5FA3D3E9002387
:105A1000FDF744FB32463B46FDF7F6FC02460B46DB
:105A200020462946FDF738FB06460F4632463B46E0
:105A300020462946FDF7E8FC02460B46304639462B
:105A400016461F4600224FF08043FDF725FB024615
:105A50000B4630463946FDF701FE424606460F46E4
:105A60004B4620462946FDF7CFFC42464B46FDF704
:105A700015FB02460B4630463946FDF70DFB224624
:105A80002B46FDF709FB02460B4600204649FDF771
:105A900003FB029A0B461344B3F5801FC0F2478103
:105AA000194653EC182BFDF7AFFC41EC100BFFF738
:105AB000E6BBB8F1000FFFF625AC47EC106B07B062
:105AC000BDEC0C8BBDE8F04F00F074B9DFF8E0C01E
:105AD00021F00043634540F3DD80344B0B44034326
